{
  "contractName": "DividendableToken",
  "abi": [
    {
      "constant": false,
      "inputs": [
        {
          "name": "_spender",
          "type": "address"
        },
        {
          "name": "_value",
          "type": "uint256"
        }
      ],
      "name": "approve",
      "outputs": [
        {
          "name": "",
          "type": "bool"
        }
      ],
      "payable": false,
      "stateMutability": "nonpayable",
      "type": "function"
    },
    {
      "constant": true,
      "inputs": [],
      "name": "totalSupply",
      "outputs": [
        {
          "name": "",
          "type": "uint256"
        }
      ],
      "payable": false,
      "stateMutability": "view",
      "type": "function"
    },
    {
      "constant": false,
      "inputs": [
        {
          "name": "_spender",
          "type": "address"
        },
        {
          "name": "_subtractedValue",
          "type": "uint256"
        }
      ],
      "name": "decreaseApproval",
      "outputs": [
        {
          "name": "",
          "type": "bool"
        }
      ],
      "payable": false,
      "stateMutability": "nonpayable",
      "type": "function"
    },
    {
      "constant": true,
      "inputs": [
        {
          "name": "_owner",
          "type": "address"
        }
      ],
      "name": "balanceOf",
      "outputs": [
        {
          "name": "",
          "type": "uint256"
        }
      ],
      "payable": false,
      "stateMutability": "view",
      "type": "function"
    },
    {
      "constant": false,
      "inputs": [],
      "name": "renounceOwnership",
      "outputs": [],
      "payable": false,
      "stateMutability": "nonpayable",
      "type": "function"
    },
    {
      "constant": false,
      "inputs": [
        {
          "name": "_value",
          "type": "uint256"
        }
      ],
      "name": "addDividend",
      "outputs": [],
      "payable": false,
      "stateMutability": "nonpayable",
      "type": "function"
    },
    {
      "constant": true,
      "inputs": [
        {
          "name": "",
          "type": "uint256"
        }
      ],
      "name": "dividends",
      "outputs": [
        {
          "name": "",
          "type": "uint256"
        }
      ],
      "payable": false,
      "stateMutability": "view",
      "type": "function"
    },
    {
      "constant": true,
      "inputs": [],
      "name": "MAX_DIVIDEND_LOOP",
      "outputs": [
        {
          "name": "",
          "type": "uint8"
        }
      ],
      "payable": false,
      "stateMutability": "view",
      "type": "function"
    },
    {
      "constant": true,
      "inputs": [],
      "name": "owner",
      "outputs": [
        {
          "name": "",
          "type": "address"
        }
      ],
      "payable": false,
      "stateMutability": "view",
      "type": "function"
    },
    {
      "constant": false,
      "inputs": [
        {
          "name": "_owner",
          "type": "address"
        }
      ],
      "name": "calculateDividend",
      "outputs": [
        {
          "name": "",
          "type": "uint256"
        },
        {
          "name": "",
          "type": "uint256"
        }
      ],
      "payable": false,
      "stateMutability": "nonpayable",
      "type": "function"
    },
    {
      "constant": true,
      "inputs": [],
      "name": "BALANCE_FLAG",
      "outputs": [
        {
          "name": "",
          "type": "uint256"
        }
      ],
      "payable": false,
      "stateMutability": "view",
      "type": "function"
    },
    {
      "constant": false,
      "inputs": [
        {
          "name": "_owner",
          "type": "address"
        }
      ],
      "name": "getLastDividendAmount",
      "outputs": [
        {
          "name": "",
          "type": "uint256"
        }
      ],
      "payable": false,
      "stateMutability": "nonpayable",
      "type": "function"
    },
    {
      "constant": false,
      "inputs": [
        {
          "name": "_spender",
          "type": "address"
        },
        {
          "name": "_addedValue",
          "type": "uint256"
        }
      ],
      "name": "increaseApproval",
      "outputs": [
        {
          "name": "",
          "type": "bool"
        }
      ],
      "payable": false,
      "stateMutability": "nonpayable",
      "type": "function"
    },
    {
      "constant": true,
      "inputs": [
        {
          "name": "_owner",
          "type": "address"
        },
        {
          "name": "_spender",
          "type": "address"
        }
      ],
      "name": "allowance",
      "outputs": [
        {
          "name": "",
          "type": "uint256"
        }
      ],
      "payable": false,
      "stateMutability": "view",
      "type": "function"
    },
    {
      "constant": false,
      "inputs": [
        {
          "name": "_newOwner",
          "type": "address"
        }
      ],
      "name": "transferOwnership",
      "outputs": [],
      "payable": false,
      "stateMutability": "nonpayable",
      "type": "function"
    },
    {
      "inputs": [],
      "payable": false,
      "stateMutability": "nonpayable",
      "type": "constructor"
    },
    {
      "anonymous": false,
      "inputs": [
        {
          "indexed": false,
          "name": "holded",
          "type": "uint256"
        },
        {
          "indexed": false,
          "name": "toBePaid",
          "type": "uint256"
        },
        {
          "indexed": false,
          "name": "totalDivAmount",
          "type": "uint256"
        },
        {
          "indexed": false,
          "name": "totalAmount",
          "type": "uint256"
        }
      ],
      "name": "Debug",
      "type": "event"
    },
    {
      "anonymous": false,
      "inputs": [
        {
          "indexed": false,
          "name": "to",
          "type": "address"
        },
        {
          "indexed": false,
          "name": "amount",
          "type": "uint256"
        }
      ],
      "name": "DividendPayed",
      "type": "event"
    },
    {
      "anonymous": false,
      "inputs": [
        {
          "indexed": true,
          "name": "founder",
          "type": "address"
        },
        {
          "indexed": false,
          "name": "valueAdded",
          "type": "uint256"
        }
      ],
      "name": "AddDividend",
      "type": "event"
    },
    {
      "anonymous": false,
      "inputs": [
        {
          "indexed": true,
          "name": "previousOwner",
          "type": "address"
        }
      ],
      "name": "OwnershipRenounced",
      "type": "event"
    },
    {
      "anonymous": false,
      "inputs": [
        {
          "indexed": true,
          "name": "previousOwner",
          "type": "address"
        },
        {
          "indexed": true,
          "name": "newOwner",
          "type": "address"
        }
      ],
      "name": "OwnershipTransferred",
      "type": "event"
    },
    {
      "anonymous": false,
      "inputs": [
        {
          "indexed": true,
          "name": "owner",
          "type": "address"
        },
        {
          "indexed": true,
          "name": "spender",
          "type": "address"
        },
        {
          "indexed": false,
          "name": "value",
          "type": "uint256"
        }
      ],
      "name": "Approval",
      "type": "event"
    },
    {
      "anonymous": false,
      "inputs": [
        {
          "indexed": true,
          "name": "from",
          "type": "address"
        },
        {
          "indexed": true,
          "name": "to",
          "type": "address"
        },
        {
          "indexed": false,
          "name": "value",
          "type": "uint256"
        }
      ],
      "name": "Transfer",
      "type": "event"
    },
    {
      "constant": false,
      "inputs": [
        {
          "name": "_to",
          "type": "address"
        },
        {
          "name": "_value",
          "type": "uint256"
        }
      ],
      "name": "transfer",
      "outputs": [
        {
          "name": "",
          "type": "bool"
        }
      ],
      "payable": false,
      "stateMutability": "nonpayable",
      "type": "function"
    },
    {
      "constant": false,
      "inputs": [
        {
          "name": "_from",
          "type": "address"
        },
        {
          "name": "_to",
          "type": "address"
        },
        {
          "name": "_value",
          "type": "uint256"
        }
      ],
      "name": "transferFrom",
      "outputs": [
        {
          "name": "",
          "type": "bool"
        }
      ],
      "payable": false,
      "stateMutability": "nonpayable",
      "type": "function"
    }
  ],
  "bytecode": "0x608060405234801561001057600080fd5b5033600360006101000a81548173ffffffffffffffffffffffffffffffffffffffff021916908373ffffffffffffffffffffffffffffffffffffffff160217905550611ec5806100616000396000f3006080604052600436106100f1576000357c0100000000000000000000000000000000000000000000000000000000900463ffffffff168063095ea7b3146100f657806318160ddd1461015b57806323b872dd14610186578063661884631461020b57806370a0823114610270578063715018a6146102c7578063752d2bfb146102de578063814b3fe01461030b578063883c6f401461034c5780638da5cb5b1461037d5780639f657426146103d4578063a357768a14610432578063a9059cbb1461045d578063c4bb6bb7146104c2578063d73dd62314610519578063dd62ed3e1461057e578063f2fde38b146105f5575b600080fd5b34801561010257600080fd5b50610141600480360381019080803573ffffffffffffffffffffffffffffffffffffffff16906020019092919080359060200190929190505050610638565b604051808215151515815260200191505060405180910390f35b34801561016757600080fd5b5061017061072a565b6040518082815260200191505060405180910390f35b34801561019257600080fd5b506101f1600480360381019080803573ffffffffffffffffffffffffffffffffffffffff169060200190929190803573ffffffffffffffffffffffffffffffffffffffff16906020019092919080359060200190929190505050610734565b604051808215151515815260200191505060405180910390f35b34801561021757600080fd5b50610256600480360381019080803573ffffffffffffffffffffffffffffffffffffffff16906020019092919080359060200190929190505050610e37565b604051808215151515815260200191505060405180910390f35b34801561027c57600080fd5b506102b1600480360381019080803573ffffffffffffffffffffffffffffffffffffffff1690602001909291905050506110c9565b6040518082815260200191505060405180910390f35b3480156102d357600080fd5b506102dc611124565b005b3480156102ea57600080fd5b5061030960048036038101908080359060200190929190505050611229565b005b34801561031757600080fd5b50610336600480360381019080803590602001909291905050506113c8565b6040518082815260200191505060405180910390f35b34801561035857600080fd5b506103616113eb565b604051808260ff1660ff16815260200191505060405180910390f35b34801561038957600080fd5b506103926113f0565b604051808273ffffffffffffffffffffffffffffffffffffffff1673ffffffffffffffffffffffffffffffffffffffff16815260200191505060405180910390f35b3480156103e057600080fd5b50610415600480360381019080803573ffffffffffffffffffffffffffffffffffffffff169060200190929190505050611416565b604051808381526020018281526020019250505060405180910390f35b34801561043e57600080fd5b506104476114be565b6040518082815260200191505060405180910390f35b34801561046957600080fd5b506104a8600480360381019080803573ffffffffffffffffffffffffffffffffffffffff169060200190929190803590602001909291905050506114d2565b604051808215151515815260200191505060405180910390f35b3480156104ce57600080fd5b50610503600480360381019080803573ffffffffffffffffffffffffffffffffffffffff16906020019092919050505061190d565b6040518082815260200191505060405180910390f35b34801561052557600080fd5b50610564600480360381019080803573ffffffffffffffffffffffffffffffffffffffff16906020019092919080359060200190929190505050611938565b604051808215151515815260200191505060405180910390f35b34801561058a57600080fd5b506105df600480360381019080803573ffffffffffffffffffffffffffffffffffffffff169060200190929190803573ffffffffffffffffffffffffffffffffffffffff169060200190929190505050611b34565b6040518082815260200191505060405180910390f35b34801561060157600080fd5b50610636600480360381019080803573ffffffffffffffffffffffffffffffffffffffff169060200190929190505050611bbb565b005b600081600260003373ffffffffffffffffffffffffffffffffffffffff1673ffffffffffffffffffffffffffffffffffffffff16815260200190815260200160002060008573ffffffffffffffffffffffffffffffffffffffff1673ffffffffffffffffffffffffffffffffffffffff168152602001908152602001600020819055508273ffffffffffffffffffffffffffffffffffffffff163373ffffffffffffffffffffffffffffffffffffffff167f8c5be1e5ebec7d5bd14f71427d1e84f3dd0314c0f7b2291e5b200ac8c7c3b925846040518082815260200191505060405180910390a36001905092915050565b6000600154905090565b6000806000806000806000808973ffffffffffffffffffffffffffffffffffffffff163073ffffffffffffffffffffffffffffffffffffffff161415151561080a576040517f08c379a000000000000000000000000000000000000000000000000000000000815260040180806020018281038252602a8152602001807f43616e6e6f742073656e6420746f6b656e7320746f20746f6b656e20736d617281526020017f7420636f6e74726163740000000000000000000000000000000000000000000081525060400191505060405180910390fd5b6108138b6110c9565b891115151561088a576040517f08c379a000000000000000000000000000000000000000000000000000000000815260040180806020018281038252601f8152602001807f42616c616e63652066726f6d206973206c657373207468616e2076616c75650081525060200191505060405180910390fd5b600260008c73ffffffffffffffffffffffffffffffffffffffff1673ffffffffffffffffffffffffffffffffffffffff16815260200190815260200160002060003373ffffffffffffffffffffffffffffffffffffffff1673ffffffffffffffffffffffffffffffffffffffff16815260200190815260200160002054891115151561097e576040517f08c379a00000000000000000000000000000000000000000000000000000000081526004018080602001828103825260188152602001807f416c6c6f77616e6365206973206e6f7420656e6175676874000000000000000081525060200191505060405180910390fd5b600073ffffffffffffffffffffffffffffffffffffffff168a73ffffffffffffffffffffffffffffffffffffffff1614151515610a23576040517f08c379a00000000000000000000000000000000000000000000000000000000081526004018080602001828103825260198152602001807f4164647265737320746f2063616e206e6f74206265203078300000000000000081525060200191505060405180910390fd5b610a2c336110c9565b9650610a3733611416565b95509550610a6a33610a6488610a568d8c611c2390919063ffffffff16565b611c3c90919063ffffffff16565b87611c58565b610a738a6110c9565b9650610a7e8a611416565b93509350610ab18a610aab86610a9d8d8c611c3c90919063ffffffff16565b611c3c90919063ffffffff16565b85611c58565b610aba8b6110c9565b9650610b4b89600260008e73ffffffffffffffffffffffffffffffffffffffff1673ffffffffffffffffffffffffffffffffffffffff16815260200190815260200160002060003373ffffffffffffffffffffffffffffffffffffffff1673ffffffffffffffffffffffffffffffffffffffff16815260200190815260200160002054611c2390919063ffffffff16565b600260008d73ffffffffffffffffffffffffffffffffffffffff1673ffffffffffffffffffffffffffffffffffffffff16815260200190815260200160002060003373ffffffffffffffffffffffffffffffffffffffff1673ffffffffffffffffffffffffffffffffffffffff16815260200190815260200160002081905550610bd48b611416565b91509150610c198b610c1384610c0588610bf78f8e611c2390919063ffffffff16565b611c3c90919063ffffffff16565b611c3c90919063ffffffff16565b83611c58565b8973ffffffffffffffffffffffffffffffffffffffff168b73ffffffffffffffffffffffffffffffffffffffff167fddf252ad1be2c89b69c2b068fc378daa952ba7f163c4a11628f55a4df523b3ef8b6040518082815260200191505060405180910390a3610cc630610cc184610cb388610ca58c610c97306110c9565b611c2390919063ffffffff16565b611c2390919063ffffffff16565b611c2390919063ffffffff16565b611caa565b6000861115610d3b577f2a90f808c9dd57afe043de25b0834f61e5484e5fbc5a3cf6b454bf09e70ca9bb3387604051808373ffffffffffffffffffffffffffffffffffffffff1673ffffffffffffffffffffffffffffffffffffffff1681526020018281526020019250505060405180910390a15b6000841115610db0577f2a90f808c9dd57afe043de25b0834f61e5484e5fbc5a3cf6b454bf09e70ca9bb8a85604051808373ffffffffffffffffffffffffffffffffffffffff1673ffffffffffffffffffffffffffffffffffffffff1681526020018281526020019250505060405180910390a15b6000821115610e25577f2a90f808c9dd57afe043de25b0834f61e5484e5fbc5a3cf6b454bf09e70ca9bb8b83604051808373ffffffffffffffffffffffffffffffffffffffff1673ffffffffffffffffffffffffffffffffffffffff1681526020018281526020019250505060405180910390a15b60019750505050505050509392505050565b600080600260003373ffffffffffffffffffffffffffffffffffffffff1673ffffffffffffffffffffffffffffffffffffffff16815260200190815260200160002060008573ffffffffffffffffffffffffffffffffffffffff1673ffffffffffffffffffffffffffffffffffffffff1681526020019081526020016000205490508083101515610f49576000600260003373ffffffffffffffffffffffffffffffffffffffff1673ffffffffffffffffffffffffffffffffffffffff16815260200190815260200160002060008673ffffffffffffffffffffffffffffffffffffffff1673ffffffffffffffffffffffffffffffffffffffff16815260200190815260200160002081905550610fdd565b610f5c8382611c2390919063ffffffff16565b600260003373ffffffffffffffffffffffffffffffffffffffff1673ffffffffffffffffffffffffffffffffffffffff16815260200190815260200160002060008673ffffffffffffffffffffffffffffffffffffffff1673ffffffffffffffffffffffffffffffffffffffff168152602001908152602001600020819055505b8373ffffffffffffffffffffffffffffffffffffffff163373ffffffffffffffffffffffffffffffffffffffff167f8c5be1e5ebec7d5bd14f71427d1e84f3dd0314c0f7b2291e5b200ac8c7c3b925600260003373ffffffffffffffffffffffffffffffffffffffff1673ffffffffffffffffffffffffffffffffffffffff16815260200190815260200160002060008873ffffffffffffffffffffffffffffffffffffffff1673ffffffffffffffffffffffffffffffffffffffff168152602001908152602001600020546040518082815260200191505060405180910390a3600191505092915050565b60006fffffffffffffffffffffffffffffffff600560008473ffffffffffffffffffffffffffffffffffffffff1673ffffffffffffffffffffffffffffffffffffffff16815260200190815260200160002054169050919050565b600360009054906101000a900473ffffffffffffffffffffffffffffffffffffffff1673ffffffffffffffffffffffffffffffffffffffff163373ffffffffffffffffffffffffffffffffffffffff1614151561118057600080fd5b600360009054906101000a900473ffffffffffffffffffffffffffffffffffffffff1673ffffffffffffffffffffffffffffffffffffffff167ff8df31144d9c2f0f6b59d69b8b98abd5459d07f2742c4df920b25aae33c6482060405160405180910390a26000600360006101000a81548173ffffffffffffffffffffffffffffffffffffffff021916908373ffffffffffffffffffffffffffffffffffffffff160217905550565b6000600360009054906101000a900473ffffffffffffffffffffffffffffffffffffffff1673ffffffffffffffffffffffffffffffffffffffff163373ffffffffffffffffffffffffffffffffffffffff1614151561128757600080fd5b611290336110c9565b905081811015151561130a576040517f08c379a00000000000000000000000000000000000000000000000000000000081526004018080602001828103825260198152602001807f4e6f7420656e617567687420746f6b656e2062616c616e63650000000000000081525060200191505060405180910390fd5b611326336113218484611c2390919063ffffffff16565b611caa565b61134a3061134584611337306110c9565b611c3c90919063ffffffff16565b611caa565b60048290806001815401808255809150509060018203906000526020600020016000909192909190915055503373ffffffffffffffffffffffffffffffffffffffff167f679bed14dad28ba2c6f12293dd35135a4f1c2df0a1a7b0b5975d5cd6872b8f94836040518082815260200191505060405180910390a25050565b6004818154811015156113d757fe5b906000526020600020016000915090505481565b600581565b600360009054906101000a900473ffffffffffffffffffffffffffffffffffffffff1681565b600080600080600080600061142a88611d4c565b94508460048054905011156114a957611442886110c9565b935060009250849150846004805490500390505b808210156114985760015460048381548110151561147057fe5b9060005260206000200154850281151561148657fe5b04830192508180600101925050611456565b8282806001019350965096506114b4565b600085819150965096505b5050505050915091565b6fffffffffffffffffffffffffffffffff81565b60008060008060008060008873ffffffffffffffffffffffffffffffffffffffff163073ffffffffffffffffffffffffffffffffffffffff16141515156115a7576040517f08c379a000000000000000000000000000000000000000000000000000000000815260040180806020018281038252602a8152602001807f43616e6e6f742073656e6420746f6b656e7320746f20746f6b656e20736d617281526020017f7420636f6e74726163740000000000000000000000000000000000000000000081525060400191505060405180910390fd5b6115b0336110c9565b9550858811151515611650576040517f08c379a00000000000000000000000000000000000000000000000000000000081526004018080602001828103825260218152602001807f53656e6465722062616c616e6365206973206c657373207468616e2076616c7581526020017f650000000000000000000000000000000000000000000000000000000000000081525060400191505060405180910390fd5b600073ffffffffffffffffffffffffffffffffffffffff168973ffffffffffffffffffffffffffffffffffffffff16141515156116f5576040517f08c379a00000000000000000000000000000000000000000000000000000000081526004018080602001828103825260198152602001807f4164647265737320746f2063616e206e6f74206265203078300000000000000081525060200191505060405180910390fd5b6116fe33611416565b945094506117313361172b8761171d8c8b611c2390919063ffffffff16565b611c3c90919063ffffffff16565b86611c58565b61173a896110c9565b925061174589611416565b9150915061177889611772846117648c88611c3c90919063ffffffff16565b611c3c90919063ffffffff16565b83611c58565b8873ffffffffffffffffffffffffffffffffffffffff163373ffffffffffffffffffffffffffffffffffffffff167fddf252ad1be2c89b69c2b068fc378daa952ba7f163c4a11628f55a4df523b3ef8a6040518082815260200191505060405180910390a36118133061180e84611800896117f2306110c9565b611c2390919063ffffffff16565b611c2390919063ffffffff16565b611caa565b6000851115611888577f2a90f808c9dd57afe043de25b0834f61e5484e5fbc5a3cf6b454bf09e70ca9bb3386604051808373ffffffffffffffffffffffffffffffffffffffff1673ffffffffffffffffffffffffffffffffffffffff1681526020018281526020019250505060405180910390a15b60008211156118fd577f2a90f808c9dd57afe043de25b0834f61e5484e5fbc5a3cf6b454bf09e70ca9bb8983604051808373ffffffffffffffffffffffffffffffffffffffff1673ffffffffffffffffffffffffffffffffffffffff1681526020018281526020019250505060405180910390a15b6001965050505050505092915050565b6000600461191a83611d4c565b81548110151561192657fe5b90600052602060002001549050919050565b60006119c982600260003373ffffffffffffffffffffffffffffffffffffffff1673ffffffffffffffffffffffffffffffffffffffff16815260200190815260200160002060008673ffffffffffffffffffffffffffffffffffffffff1673ffffffffffffffffffffffffffffffffffffffff16815260200190815260200160002054611c3c90919063ffffffff16565b600260003373ffffffffffffffffffffffffffffffffffffffff1673ffffffffffffffffffffffffffffffffffffffff16815260200190815260200160002060008573ffffffffffffffffffffffffffffffffffffffff1673ffffffffffffffffffffffffffffffffffffffff168152602001908152602001600020819055508273ffffffffffffffffffffffffffffffffffffffff163373ffffffffffffffffffffffffffffffffffffffff167f8c5be1e5ebec7d5bd14f71427d1e84f3dd0314c0f7b2291e5b200ac8c7c3b925600260003373ffffffffffffffffffffffffffffffffffffffff1673ffffffffffffffffffffffffffffffffffffffff16815260200190815260200160002060008773ffffffffffffffffffffffffffffffffffffffff1673ffffffffffffffffffffffffffffffffffffffff168152602001908152602001600020546040518082815260200191505060405180910390a36001905092915050565b6000600260008473ffffffffffffffffffffffffffffffffffffffff1673ffffffffffffffffffffffffffffffffffffffff16815260200190815260200160002060008373ffffffffffffffffffffffffffffffffffffffff1673ffffffffffffffffffffffffffffffffffffffff16815260200190815260200160002054905092915050565b600360009054906101000a900473ffffffffffffffffffffffffffffffffffffffff1673ffffffffffffffffffffffffffffffffffffffff163373ffffffffffffffffffffffffffffffffffffffff16141515611c1757600080fd5b611c2081611d9d565b50565b6000828211151515611c3157fe5b818303905092915050565b60008183019050828110151515611c4f57fe5b80905092915050565b6080819060020a028217600560008573ffffffffffffffffffffffffffffffffffffffff1673ffffffffffffffffffffffffffffffffffffffff16815260200190815260200160002081905550505050565b8060806fffffffffffffffffffffffffffffffff9060020a02600560008573ffffffffffffffffffffffffffffffffffffffff1673ffffffffffffffffffffffffffffffffffffffff168152602001908152602001600020541617600560008473ffffffffffffffffffffffffffffffffffffffff1673ffffffffffffffffffffffffffffffffffffffff168152602001908152602001600020819055505050565b60006080600560008473ffffffffffffffffffffffffffffffffffffffff1673ffffffffffffffffffffffffffffffffffffffff168152602001908152602001600020549060020a90049050919050565b600073ffffffffffffffffffffffffffffffffffffffff168173ffffffffffffffffffffffffffffffffffffffff1614151515611dd957600080fd5b8073ffffffffffffffffffffffffffffffffffffffff16600360009054906101000a900473ffffffffffffffffffffffffffffffffffffffff1673ffffffffffffffffffffffffffffffffffffffff167f8be0079c531659141344cd1fd0a4f28419497f9722a3daafe3b4186f6b6457e060405160405180910390a380600360006101000a81548173ffffffffffffffffffffffffffffffffffffffff021916908373ffffffffffffffffffffffffffffffffffffffff160217905550505600a165627a7a72305820454e7f199c6089694910badbebc65aee0ce05fa3e6b11ce456c01e4b6019e0fc0029",
  "source": "pragma solidity ^0.4.24;\r\nimport 'openzeppelin-solidity/contracts/token/ERC20/MintableToken.sol';\r\nimport './BaseDividendableToken.sol';\r\n\r\ncontract DividendableToken is BaseDividendableToken {\r\n\r\n    event Debug(uint256 holded,uint256 toBePaid,uint256 totalDivAmount, uint256 totalAmount);\r\n    event DividendPayed(address to,uint256 amount);\r\n\r\n    constructor() public{\r\n    }\r\n\r\n    function transfer(address _to,uint256 _value) public returns(bool){\r\n        require(address(this) != _to, \"Cannot send tokens to token smart contract\");\r\n\r\n        uint senderBalance = balanceOf(msg.sender);\r\n        require(_value <= senderBalance, \"Sender balance is less than value\");\r\n        require(_to != address(0), \"Address to can not be 0x0\");\r\n\r\n        //set data for msg.sender\r\n        var (dividendForSender, lastDividendSender ) = calculateDividend(msg.sender);\r\n        setAccount(msg.sender,senderBalance.sub(_value).add(dividendForSender),lastDividendSender);\r\n\r\n        //set data for _to\r\n        uint reciverBalance = balanceOf(_to);\r\n        var (dividendForReciever, lastDividendReciever ) = calculateDividend(_to);\r\n        setAccount(_to,reciverBalance.add(_value).add(dividendForReciever),lastDividendReciever);\r\n\r\n        emit Transfer(msg.sender, _to, _value);\r\n\r\n        //set data form token balance\r\n        setBalance(address(this), balanceOf(this).sub(dividendForSender).sub(dividendForReciever));\r\n\r\n        if(dividendForSender > 0)\r\n            emit DividendPayed(msg.sender,dividendForSender);\r\n        if(dividendForReciever > 0)\r\n            emit DividendPayed(_to,dividendForReciever);\r\n\r\n        return true;\r\n    }\r\n\r\n    function transferFrom(address _from, address _to, uint256 _value) public returns (bool) {\r\n        require(address(this) != _to, \"Cannot send tokens to token smart contract\");\r\n        require(_value <= balanceOf(_from), \"Balance from is less than value\");\r\n        require(_value <= allowed[_from][msg.sender], \"Allowance is not enaught\");\r\n        require(_to != address(0), \"Address to can not be 0x0\");\r\n\r\n        //set data for msg.sender\r\n        uint balance = balanceOf(msg.sender);\r\n        var (dividendForSender, lastDividendSender ) = calculateDividend(msg.sender);\r\n        setAccount(msg.sender,balance.sub(_value).add(dividendForSender),lastDividendSender);\r\n\r\n        //set data for _to\r\n        balance = balanceOf(_to);\r\n        var (dividendForReciever, lastDividendReciever ) = calculateDividend(_to);\r\n        setAccount(_to,balance.add(_value).add(dividendForReciever),lastDividendReciever);\r\n\r\n        balance = balanceOf(_from);\r\n        allowed[_from][msg.sender] = allowed[_from][msg.sender].sub(_value);\r\n        var (dividendForFrom, lastDividendFrom ) = calculateDividend(_from);\r\n        setAccount(_from,balance.sub(_value).add(dividendForReciever).add(dividendForFrom),lastDividendFrom);\r\n\r\n        emit Transfer(_from, _to, _value);\r\n\r\n        //set data form token balance\r\n        setBalance(address(this), balanceOf(this).sub(dividendForSender).sub(dividendForReciever).sub(dividendForFrom));\r\n        \r\n        if(dividendForSender > 0)\r\n            emit DividendPayed(msg.sender,dividendForSender);\r\n        if(dividendForReciever > 0)\r\n            emit DividendPayed(_to,dividendForReciever);\r\n        if(dividendForFrom > 0)\r\n            emit DividendPayed(_from,dividendForFrom);\r\n\r\n        return true;\r\n    }\r\n}",
  "sourcePath": "C:\\repo\\DividendableToken\\contracts\\DividendableToken.sol",
  "compiler": {
    "name": "solc",
    "version": "0.4.24+commit.e67f0147.Emscripten.clang"
  },
  "schemaVersion": "2.0.1",
  "updatedAt": "2018-09-23T17:45:17.903Z"
}